{
  "_format": "hh-sol-artifact-1",
  "contractName": "BookLibrary",
  "sourceName": "contracts/BookLibrary.sol",
  "abi": [
    {
      "anonymous": false,
      "inputs": [
        {
          "indexed": false,
          "internalType": "bytes32",
          "name": "id",
          "type": "bytes32"
        },
        {
          "indexed": false,
          "internalType": "string",
          "name": "title",
          "type": "string"
        },
        {
          "indexed": false,
          "internalType": "uint256",
          "name": "copies",
          "type": "uint256"
        }
      ],
      "name": "BookAdded",
      "type": "event"
    },
    {
      "anonymous": false,
      "inputs": [
        {
          "indexed": false,
          "internalType": "bytes32",
          "name": "id",
          "type": "bytes32"
        },
        {
          "indexed": false,
          "internalType": "string",
          "name": "title",
          "type": "string"
        },
        {
          "indexed": false,
          "internalType": "address",
          "name": "user",
          "type": "address"
        }
      ],
      "name": "BookBorrowed",
      "type": "event"
    },
    {
      "anonymous": false,
      "inputs": [
        {
          "indexed": false,
          "internalType": "bytes32",
          "name": "id",
          "type": "bytes32"
        },
        {
          "indexed": false,
          "internalType": "string",
          "name": "title",
          "type": "string"
        },
        {
          "indexed": false,
          "internalType": "address",
          "name": "user",
          "type": "address"
        }
      ],
      "name": "BookReturned",
      "type": "event"
    },
    {
      "anonymous": false,
      "inputs": [
        {
          "indexed": true,
          "internalType": "address",
          "name": "previousOwner",
          "type": "address"
        },
        {
          "indexed": true,
          "internalType": "address",
          "name": "newOwner",
          "type": "address"
        }
      ],
      "name": "OwnershipTransferred",
      "type": "event"
    },
    {
      "inputs": [
        {
          "internalType": "string",
          "name": "_title",
          "type": "string"
        },
        {
          "internalType": "uint256",
          "name": "_copies",
          "type": "uint256"
        }
      ],
      "name": "addBook",
      "outputs": [],
      "stateMutability": "nonpayable",
      "type": "function"
    },
    {
      "inputs": [
        {
          "internalType": "bytes32",
          "name": "_bookId",
          "type": "bytes32"
        }
      ],
      "name": "borrowBook",
      "outputs": [],
      "stateMutability": "nonpayable",
      "type": "function"
    },
    {
      "inputs": [],
      "name": "getAllBooks",
      "outputs": [
        {
          "components": [
            {
              "internalType": "bytes32",
              "name": "id",
              "type": "bytes32"
            },
            {
              "internalType": "string",
              "name": "title",
              "type": "string"
            },
            {
              "internalType": "uint256",
              "name": "copies",
              "type": "uint256"
            },
            {
              "internalType": "address[]",
              "name": "borrowedUsersHistory",
              "type": "address[]"
            }
          ],
          "internalType": "struct BookLibrary.Book[]",
          "name": "",
          "type": "tuple[]"
        }
      ],
      "stateMutability": "view",
      "type": "function"
    },
    {
      "inputs": [],
      "name": "getAvailableBooks",
      "outputs": [
        {
          "components": [
            {
              "internalType": "bytes32",
              "name": "id",
              "type": "bytes32"
            },
            {
              "internalType": "string",
              "name": "title",
              "type": "string"
            },
            {
              "internalType": "uint256",
              "name": "copies",
              "type": "uint256"
            },
            {
              "internalType": "address[]",
              "name": "borrowedUsersHistory",
              "type": "address[]"
            }
          ],
          "internalType": "struct BookLibrary.Book[]",
          "name": "",
          "type": "tuple[]"
        }
      ],
      "stateMutability": "view",
      "type": "function"
    },
    {
      "inputs": [
        {
          "internalType": "bytes32",
          "name": "_bookId",
          "type": "bytes32"
        }
      ],
      "name": "getBookBorrowers",
      "outputs": [
        {
          "internalType": "address[]",
          "name": "",
          "type": "address[]"
        }
      ],
      "stateMutability": "view",
      "type": "function"
    },
    {
      "inputs": [],
      "name": "owner",
      "outputs": [
        {
          "internalType": "address",
          "name": "",
          "type": "address"
        }
      ],
      "stateMutability": "view",
      "type": "function"
    },
    {
      "inputs": [],
      "name": "renounceOwnership",
      "outputs": [],
      "stateMutability": "nonpayable",
      "type": "function"
    },
    {
      "inputs": [
        {
          "internalType": "bytes32",
          "name": "_bookId",
          "type": "bytes32"
        }
      ],
      "name": "returnBook",
      "outputs": [],
      "stateMutability": "nonpayable",
      "type": "function"
    },
    {
      "inputs": [
        {
          "internalType": "address",
          "name": "newOwner",
          "type": "address"
        }
      ],
      "name": "transferOwnership",
      "outputs": [],
      "stateMutability": "nonpayable",
      "type": "function"
    }
  ],
  "bytecode": "0x608060405234801561001057600080fd5b5061002d61002261003260201b60201c565b61003a60201b60201c565b6100fe565b600033905090565b60008060009054906101000a900473ffffffffffffffffffffffffffffffffffffffff169050816000806101000a81548173ffffffffffffffffffffffffffffffffffffffff021916908373ffffffffffffffffffffffffffffffffffffffff1602179055508173ffffffffffffffffffffffffffffffffffffffff168173ffffffffffffffffffffffffffffffffffffffff167f8be0079c531659141344cd1fd0a4f28419497f9722a3daafe3b4186f6b6457e060405160405180910390a35050565b6121c8806200010e6000396000f3fe608060405234801561001057600080fd5b50600436106100935760003560e01c8063715018a611610066578063715018a61461011e5780638da5cb5b14610128578063d25a434814610146578063d6c084d914610162578063f2fde38b1461018057610093565b806312775c1614610098578063354528e8146100b45780634054039c146100d2578063637a387214610102575b600080fd5b6100b260048036038101906100ad9190611560565b61019c565b005b6100bc610328565b6040516100c99190611ab0565b60405180910390f35b6100ec60048036038101906100e79190611560565b6105b8565b6040516100f99190611a8e565b60405180910390f35b61011c60048036038101906101179190611589565b6106a4565b005b610126610906565b005b61013061098e565b60405161013d9190611a73565b60405180910390f35b610160600480360381019061015b9190611560565b6109b7565b005b61016a610bf5565b6040516101779190611ab0565b60405180910390f35b61019a60048036038101906101959190611537565b610fdb565b005b60011515600460003373ffffffffffffffffffffffffffffffffffffffff1673ffffffffffffffffffffffffffffffffffffffff168152602001908152602001600020600083815260200190815260200160002060009054906101000a900460ff16151514610240576040517f08c379a000000000000000000000000000000000000000000000000000000000815260040161023790611c2e565b60405180910390fd5b60026000828152602001908152602001600020600201600081548092919061026790611ea9565b91905055506000600460003373ffffffffffffffffffffffffffffffffffffffff1673ffffffffffffffffffffffffffffffffffffffff168152602001908152602001600020600083815260200190815260200160002060006101000a81548160ff0219169083151502179055507f97cbec680da2d34e68123dda5e21cb1786866741ea07e3be3ea984e95d37fc9d81600260008481526020019081526020016000206001013360405161031d93929190611b10565b60405180910390a150565b6060600060018054905067ffffffffffffffff811115610371577f4e487b7100000000000000000000000000000000000000000000000000000000600052604160045260246000fd5b6040519080825280602002602001820160405280156103aa57816020015b610397611338565b81526020019060019003908161038f5790505b50905060005b6001805490508110156105b0576000600182815481106103f9577f4e487b7100000000000000000000000000000000000000000000000000000000600052603260045260246000fd5b90600052602060002001549050600260008281526020019081526020016000206040518060800160405290816000820154815260200160018201805461043e90611e46565b80601f016020809104026020016040519081016040528092919081815260200182805461046a90611e46565b80156104b75780601f1061048c576101008083540402835291602001916104b7565b820191906000526020600020905b81548152906001019060200180831161049a57829003601f168201915b50505050508152602001600282015481526020016003820180548060200260200160405190810160405280929190818152602001828054801561054f57602002820191906000526020600020905b8160009054906101000a900473ffffffffffffffffffffffffffffffffffffffff1673ffffffffffffffffffffffffffffffffffffffff1681526020019060010190808311610505575b505050505081525050838381518110610591577f4e487b7100000000000000000000000000000000000000000000000000000000600052603260045260246000fd5b60200260200101819052505080806105a890611ea9565b9150506103b0565b508091505090565b60606105c3826110d3565b610602576040517f08c379a00000000000000000000000000000000000000000000000000000000081526004016105f990611bae565b60405180910390fd5b6002600083815260200190815260200160002060030180548060200260200160405190810160405280929190818152602001828054801561069857602002820191906000526020600020905b8160009054906101000a900473ffffffffffffffffffffffffffffffffffffffff1673ffffffffffffffffffffffffffffffffffffffff168152602001906001019080831161064e575b50505050509050919050565b6106ac61123c565b73ffffffffffffffffffffffffffffffffffffffff166106ca61098e565b73ffffffffffffffffffffffffffffffffffffffff1614610720576040517f08c379a000000000000000000000000000000000000000000000000000000000815260040161071790611c0e565b60405180910390fd5b81816000825111610766576040517f08c379a000000000000000000000000000000000000000000000000000000000815260040161075d90611b4e565b60405180910390fd5b6000151561077b61077684611244565b6110d3565b1515146107bd576040517f08c379a00000000000000000000000000000000000000000000000000000000081526004016107b490611bee565b60405180910390fd5b60008111610800576040517f08c379a00000000000000000000000000000000000000000000000000000000081526004016107f790611b6e565b60405180910390fd5b6060600061080d86611244565b90506000604051806080016040528083815260200188815260200187815260200184815250905060018290806001815401808255809150506001900390600052602060002001600090919091909150558060026000848152602001908152602001600020600082015181600001556020820151816001019080519060200190610897929190611363565b506040820151816002015560608201518160030190805190602001906108be9291906113e9565b509050507f35a74433f2efe1b7f26383028ef96ad971721b608e1387507768486e938fc1668288886040516108f593929190611ad2565b60405180910390a150505050505050565b61090e61123c565b73ffffffffffffffffffffffffffffffffffffffff1661092c61098e565b73ffffffffffffffffffffffffffffffffffffffff1614610982576040517f08c379a000000000000000000000000000000000000000000000000000000000815260040161097990611c0e565b60405180910390fd5b61098c6000611274565b565b60008060009054906101000a900473ffffffffffffffffffffffffffffffffffffffff16905090565b60001515600460003373ffffffffffffffffffffffffffffffffffffffff1673ffffffffffffffffffffffffffffffffffffffff168152602001908152602001600020600083815260200190815260200160002060009054906101000a900460ff16151514610a5b576040517f08c379a0000000000000000000000000000000000000000000000000000000008152600401610a5290611bce565b60405180910390fd5b6000600260008381526020019081526020016000206002015411610ab4576040517f08c379a0000000000000000000000000000000000000000000000000000000008152600401610aab90611c4e565b60405180910390fd5b6000600260008381526020019081526020016000209050806002016000815480929190610ae090611e1c565b919050555080600301339080600181540180825580915050600190039060005260206000200160009091909190916101000a81548173ffffffffffffffffffffffffffffffffffffffff021916908373ffffffffffffffffffffffffffffffffffffffff1602179055506001600460003373ffffffffffffffffffffffffffffffffffffffff1673ffffffffffffffffffffffffffffffffffffffff168152602001908152602001600020600084815260200190815260200160002060006101000a81548160ff0219169083151502179055507f703d983da514728b105211061790c58d4f28f08d359f7606ec3159ed9919dbd9828260010133604051610be993929190611b10565b60405180910390a15050565b60606000805b600180549050811015610c9357600060018281548110610c44577f4e487b7100000000000000000000000000000000000000000000000000000000600052603260045260246000fd5b90600052602060002001549050600060026000838152602001908152602001600020600201541115610c7f578280610c7b90611ea9565b9350505b508080610c8b90611ea9565b915050610bfb565b506000811415610d2057600067ffffffffffffffff811115610cde577f4e487b7100000000000000000000000000000000000000000000000000000000600052604160045260246000fd5b604051908082528060200260200182016040528015610d1757816020015b610d04611338565b815260200190600190039081610cfc5790505b50915050610fd8565b60008167ffffffffffffffff811115610d62577f4e487b7100000000000000000000000000000000000000000000000000000000600052604160045260246000fd5b604051908082528060200260200182016040528015610d9b57816020015b610d88611338565b815260200190600190039081610d805790505b5090506000805b600180549050811015610fd057600060018281548110610deb577f4e487b7100000000000000000000000000000000000000000000000000000000600052603260045260246000fd5b90600052602060002001549050600060026000838152602001908152602001600020600201541115610fbc576002600082815260200190815260200160002060405180608001604052908160008201548152602001600182018054610e4f90611e46565b80601f0160208091040260200160405190810160405280929190818152602001828054610e7b90611e46565b8015610ec85780601f10610e9d57610100808354040283529160200191610ec8565b820191906000526020600020905b815481529060010190602001808311610eab57829003601f168201915b505050505081526020016002820154815260200160038201805480602002602001604051908101604052809291908181526020018280548015610f6057602002820191906000526020600020905b8160009054906101000a900473ffffffffffffffffffffffffffffffffffffffff1673ffffffffffffffffffffffffffffffffffffffff1681526020019060010190808311610f16575b505050505081525050848481518110610fa2577f4e487b7100000000000000000000000000000000000000000000000000000000600052603260045260246000fd5b60200260200101819052508280610fb890611ea9565b9350505b508080610fc890611ea9565b915050610da2565b508193505050505b90565b610fe361123c565b73ffffffffffffffffffffffffffffffffffffffff1661100161098e565b73ffffffffffffffffffffffffffffffffffffffff1614611057576040517f08c379a000000000000000000000000000000000000000000000000000000000815260040161104e90611c0e565b60405180910390fd5b600073ffffffffffffffffffffffffffffffffffffffff168173ffffffffffffffffffffffffffffffffffffffff1614156110c7576040517f08c379a00000000000000000000000000000000000000000000000000000000081526004016110be90611b8e565b60405180910390fd5b6110d081611274565b50565b600080600260008481526020019081526020016000206040518060800160405290816000820154815260200160018201805461110e90611e46565b80601f016020809104026020016040519081016040528092919081815260200182805461113a90611e46565b80156111875780601f1061115c57610100808354040283529160200191611187565b820191906000526020600020905b81548152906001019060200180831161116a57829003601f168201915b50505050508152602001600282015481526020016003820180548060200260200160405190810160405280929190818152602001828054801561121f57602002820191906000526020600020905b8160009054906101000a900473ffffffffffffffffffffffffffffffffffffffff1673ffffffffffffffffffffffffffffffffffffffff16815260200190600101908083116111d5575b505050505081525050905060008160200151511415915050919050565b600033905090565b6000816040516020016112579190611a5c565b604051602081830303815290604052805190602001209050919050565b60008060009054906101000a900473ffffffffffffffffffffffffffffffffffffffff169050816000806101000a81548173ffffffffffffffffffffffffffffffffffffffff021916908373ffffffffffffffffffffffffffffffffffffffff1602179055508173ffffffffffffffffffffffffffffffffffffffff168173ffffffffffffffffffffffffffffffffffffffff167f8be0079c531659141344cd1fd0a4f28419497f9722a3daafe3b4186f6b6457e060405160405180910390a35050565b6040518060800160405280600080191681526020016060815260200160008152602001606081525090565b82805461136f90611e46565b90600052602060002090601f01602090048101928261139157600085556113d8565b82601f106113aa57805160ff19168380011785556113d8565b828001600101855582156113d8579182015b828111156113d75782518255916020019190600101906113bc565b5b5090506113e59190611473565b5090565b828054828255906000526020600020908101928215611462579160200282015b828111156114615782518260006101000a81548173ffffffffffffffffffffffffffffffffffffffff021916908373ffffffffffffffffffffffffffffffffffffffff16021790555091602001919060010190611409565b5b50905061146f9190611473565b5090565b5b8082111561148c576000816000905550600101611474565b5090565b60006114a361149e84611c93565b611c6e565b9050828152602081018484840111156114bb57600080fd5b6114c6848285611dda565b509392505050565b6000813590506114dd8161214d565b92915050565b6000813590506114f281612164565b92915050565b600082601f83011261150957600080fd5b8135611519848260208601611490565b91505092915050565b6000813590506115318161217b565b92915050565b60006020828403121561154957600080fd5b6000611557848285016114ce565b91505092915050565b60006020828403121561157257600080fd5b6000611580848285016114e3565b91505092915050565b6000806040838503121561159c57600080fd5b600083013567ffffffffffffffff8111156115b657600080fd5b6115c2858286016114f8565b92505060206115d385828601611522565b9150509250929050565b60006115e98383611609565b60208301905092915050565b600061160183836119d4565b905092915050565b61161281611d94565b82525050565b61162181611d94565b82525050565b600061163282611cf9565b61163c8185611d34565b935061164783611cc4565b8060005b8381101561167857815161165f88826115dd565b975061166a83611d1a565b92505060018101905061164b565b5085935050505092915050565b600061169082611cf9565b61169a8185611d45565b93506116a583611cc4565b8060005b838110156116d65781516116bd88826115dd565b97506116c883611d1a565b9250506001810190506116a9565b5085935050505092915050565b60006116ee82611d04565b6116f88185611d56565b93508360208202850161170a85611cd4565b8060005b85811015611746578484038952815161172785826115f5565b945061173283611d27565b925060208a0199505060018101905061170e565b50829750879550505050505092915050565b61176181611da6565b82525050565b61177081611da6565b82525050565b600061178182611d0f565b61178b8185611d67565b935061179b818560208601611de9565b6117a481611f7f565b840191505092915050565b60006117ba82611d0f565b6117c48185611d78565b93506117d4818560208601611de9565b6117dd81611f7f565b840191505092915050565b60006117f382611d0f565b6117fd8185611d89565b935061180d818560208601611de9565b80840191505092915050565b6000815461182681611e46565b6118308186611d78565b9450600182166000811461184b576001811461185d57611890565b60ff1983168652602086019350611890565b61186685611ce4565b60005b8381101561188857815481890152600182019150602081019050611869565b808801955050505b50505092915050565b60006118a6601a83611d78565b91506118b182611f90565b602082019050919050565b60006118c9602083611d78565b91506118d482611fb9565b602082019050919050565b60006118ec602683611d78565b91506118f782611fe2565b604082019050919050565b600061190f601483611d78565b915061191a82612031565b602082019050919050565b6000611932602383611d78565b915061193d8261205a565b604082019050919050565b6000611955601383611d78565b9150611960826120a9565b602082019050919050565b6000611978602083611d78565b9150611983826120d2565b602082019050919050565b600061199b602083611d78565b91506119a6826120fb565b602082019050919050565b60006119be602083611d78565b91506119c982612124565b602082019050919050565b60006080830160008301516119ec6000860182611758565b5060208301518482036020860152611a048282611776565b9150506040830151611a196040860182611a3e565b5060608301518482036060860152611a318282611627565b9150508091505092915050565b611a4781611dd0565b82525050565b611a5681611dd0565b82525050565b6000611a6882846117e8565b915081905092915050565b6000602082019050611a886000830184611618565b92915050565b60006020820190508181036000830152611aa88184611685565b905092915050565b60006020820190508181036000830152611aca81846116e3565b905092915050565b6000606082019050611ae76000830186611767565b8181036020830152611af981856117af565b9050611b086040830184611a4d565b949350505050565b6000606082019050611b256000830186611767565b8181036020830152611b378185611819565b9050611b466040830184611618565b949350505050565b60006020820190508181036000830152611b6781611899565b9050919050565b60006020820190508181036000830152611b87816118bc565b9050919050565b60006020820190508181036000830152611ba7816118df565b9050919050565b60006020820190508181036000830152611bc781611902565b9050919050565b60006020820190508181036000830152611be781611925565b9050919050565b60006020820190508181036000830152611c0781611948565b9050919050565b60006020820190508181036000830152611c278161196b565b9050919050565b60006020820190508181036000830152611c478161198e565b9050919050565b60006020820190508181036000830152611c67816119b1565b9050919050565b6000611c78611c89565b9050611c848282611e78565b919050565b6000604051905090565b600067ffffffffffffffff821115611cae57611cad611f50565b5b611cb782611f7f565b9050602081019050919050565b6000819050602082019050919050565b6000819050602082019050919050565b60008190508160005260206000209050919050565b600081519050919050565b600081519050919050565b600081519050919050565b6000602082019050919050565b6000602082019050919050565b600082825260208201905092915050565b600082825260208201905092915050565b600082825260208201905092915050565b600082825260208201905092915050565b600082825260208201905092915050565b600081905092915050565b6000611d9f82611db0565b9050919050565b6000819050919050565b600073ffffffffffffffffffffffffffffffffffffffff82169050919050565b6000819050919050565b82818337600083830152505050565b60005b83811015611e07578082015181840152602081019050611dec565b83811115611e16576000848401525b50505050565b6000611e2782611dd0565b91506000821415611e3b57611e3a611ef2565b5b600182039050919050565b60006002820490506001821680611e5e57607f821691505b60208210811415611e7257611e71611f21565b5b50919050565b611e8182611f7f565b810181811067ffffffffffffffff82111715611ea057611e9f611f50565b5b80604052505050565b6000611eb482611dd0565b91507fffffffffffffffffffffffffffffffffffffffffffffffffffffffffffffffff821415611ee757611ee6611ef2565b5b600182019050919050565b7f4e487b7100000000000000000000000000000000000000000000000000000000600052601160045260246000fd5b7f4e487b7100000000000000000000000000000000000000000000000000000000600052602260045260246000fd5b7f4e487b7100000000000000000000000000000000000000000000000000000000600052604160045260246000fd5b6000601f19601f8301169050919050565b7f5469746c652073686f756c64206e6f7420626520656d7074792e000000000000600082015250565b7f436f706965732073686f756c642062652067726561746572207468616e20302e600082015250565b7f4f776e61626c653a206e6577206f776e657220697320746865207a65726f206160008201527f6464726573730000000000000000000000000000000000000000000000000000602082015250565b7f426f6f6b20646f6573206e6f742065786973742e000000000000000000000000600082015250565b7f557365722068617320616c726561647920626f72726f7765642074686520626f60008201527f6f6b2e0000000000000000000000000000000000000000000000000000000000602082015250565b7f426f6f6b20616c72656164792061646465642e00000000000000000000000000600082015250565b7f4f776e61626c653a2063616c6c6572206973206e6f7420746865206f776e6572600082015250565b7f5573657220686173206e6f7420626f72726f776564207468697320626f6f6b2e600082015250565b7f4e6f20617661696c61626c6520636f70696573206f662074686520626f6f6b2e600082015250565b61215681611d94565b811461216157600080fd5b50565b61216d81611da6565b811461217857600080fd5b50565b61218481611dd0565b811461218f57600080fd5b5056fea264697066735822122072504ea38e314e2c98eda14f2fdd4c6fca1ae769314cbf6cfc44cb1b4d15803464736f6c63430008040033",
  "linkReferences": {},
  "deployedLinkReferences": {}
}