{
  "_format": "hh-sol-artifact-1",
  "contractName": "BookLibrary",
  "sourceName": "contracts/BookLibrary.sol",
  "abi": [
    {
      "anonymous": false,
      "inputs": [
        {
          "indexed": false,
          "internalType": "bytes32",
          "name": "id",
          "type": "bytes32"
        },
        {
          "indexed": false,
          "internalType": "string",
          "name": "title",
          "type": "string"
        },
        {
          "indexed": false,
          "internalType": "uint256",
          "name": "copies",
          "type": "uint256"
        }
      ],
      "name": "BookAdded",
      "type": "event"
    },
    {
      "anonymous": false,
      "inputs": [
        {
          "indexed": false,
          "internalType": "bytes32",
          "name": "id",
          "type": "bytes32"
        },
        {
          "indexed": false,
          "internalType": "string",
          "name": "title",
          "type": "string"
        },
        {
          "indexed": false,
          "internalType": "address",
          "name": "user",
          "type": "address"
        }
      ],
      "name": "BookBorrowed",
      "type": "event"
    },
    {
      "anonymous": false,
      "inputs": [
        {
          "indexed": false,
          "internalType": "bytes32",
          "name": "id",
          "type": "bytes32"
        },
        {
          "indexed": false,
          "internalType": "string",
          "name": "title",
          "type": "string"
        },
        {
          "indexed": false,
          "internalType": "address",
          "name": "user",
          "type": "address"
        }
      ],
      "name": "BookReturned",
      "type": "event"
    },
    {
      "anonymous": false,
      "inputs": [
        {
          "indexed": true,
          "internalType": "address",
          "name": "previousOwner",
          "type": "address"
        },
        {
          "indexed": true,
          "internalType": "address",
          "name": "newOwner",
          "type": "address"
        }
      ],
      "name": "OwnershipTransferred",
      "type": "event"
    },
    {
      "inputs": [
        {
          "internalType": "string",
          "name": "_title",
          "type": "string"
        },
        {
          "internalType": "uint256",
          "name": "_copies",
          "type": "uint256"
        }
      ],
      "name": "addBook",
      "outputs": [],
      "stateMutability": "nonpayable",
      "type": "function"
    },
    {
      "inputs": [
        {
          "internalType": "uint256",
          "name": "",
          "type": "uint256"
        }
      ],
      "name": "bookIds",
      "outputs": [
        {
          "internalType": "bytes32",
          "name": "",
          "type": "bytes32"
        }
      ],
      "stateMutability": "view",
      "type": "function"
    },
    {
      "inputs": [
        {
          "internalType": "bytes32",
          "name": "",
          "type": "bytes32"
        }
      ],
      "name": "books",
      "outputs": [
        {
          "internalType": "string",
          "name": "title",
          "type": "string"
        },
        {
          "internalType": "uint256",
          "name": "copies",
          "type": "uint256"
        }
      ],
      "stateMutability": "view",
      "type": "function"
    },
    {
      "inputs": [
        {
          "internalType": "string",
          "name": "_title",
          "type": "string"
        }
      ],
      "name": "borrowBook",
      "outputs": [],
      "stateMutability": "nonpayable",
      "type": "function"
    },
    {
      "inputs": [
        {
          "internalType": "string",
          "name": "_title",
          "type": "string"
        }
      ],
      "name": "getBook",
      "outputs": [
        {
          "components": [
            {
              "internalType": "string",
              "name": "title",
              "type": "string"
            },
            {
              "internalType": "uint256",
              "name": "copies",
              "type": "uint256"
            },
            {
              "internalType": "address[]",
              "name": "borrowedUsersHistory",
              "type": "address[]"
            }
          ],
          "internalType": "struct BookLibrary.Book",
          "name": "",
          "type": "tuple"
        }
      ],
      "stateMutability": "view",
      "type": "function"
    },
    {
      "inputs": [
        {
          "internalType": "string",
          "name": "_title",
          "type": "string"
        }
      ],
      "name": "getBookBorrowers",
      "outputs": [
        {
          "internalType": "address[]",
          "name": "",
          "type": "address[]"
        }
      ],
      "stateMutability": "view",
      "type": "function"
    },
    {
      "inputs": [],
      "name": "getBooksCount",
      "outputs": [
        {
          "internalType": "uint256",
          "name": "",
          "type": "uint256"
        }
      ],
      "stateMutability": "view",
      "type": "function"
    },
    {
      "inputs": [],
      "name": "owner",
      "outputs": [
        {
          "internalType": "address",
          "name": "",
          "type": "address"
        }
      ],
      "stateMutability": "view",
      "type": "function"
    },
    {
      "inputs": [],
      "name": "renounceOwnership",
      "outputs": [],
      "stateMutability": "nonpayable",
      "type": "function"
    },
    {
      "inputs": [
        {
          "internalType": "string",
          "name": "_title",
          "type": "string"
        }
      ],
      "name": "returnBook",
      "outputs": [],
      "stateMutability": "nonpayable",
      "type": "function"
    },
    {
      "inputs": [
        {
          "internalType": "address",
          "name": "newOwner",
          "type": "address"
        }
      ],
      "name": "transferOwnership",
      "outputs": [],
      "stateMutability": "nonpayable",
      "type": "function"
    }
  ],
  "bytecode": "0x608060405234801561001057600080fd5b5061002d61002261003260201b60201c565b61003a60201b60201c565b6100fe565b600033905090565b60008060009054906101000a900473ffffffffffffffffffffffffffffffffffffffff169050816000806101000a81548173ffffffffffffffffffffffffffffffffffffffff021916908373ffffffffffffffffffffffffffffffffffffffff1602179055508173ffffffffffffffffffffffffffffffffffffffff168173ffffffffffffffffffffffffffffffffffffffff167f8be0079c531659141344cd1fd0a4f28419497f9722a3daafe3b4186f6b6457e060405160405180910390a35050565b61207f806200010e6000396000f3fe608060405234801561001057600080fd5b50600436106100a95760003560e01c80638da5cb5b116100715780638da5cb5b14610151578063c37a83611461016f578063c95fca8a1461019f578063ced96fe3146101cf578063dfd83d2a146101eb578063f2fde38b14610209576100a9565b80630c0dee70146100ae5780631ef49a8c146100df578063513073b8146100fb578063637a38721461012b578063715018a614610147575b600080fd5b6100c860048036038101906100c3919061142b565b610225565b6040516100d69291906119d1565b60405180910390f35b6100f960048036038101906100f49190611454565b6102d1565b005b610115600480360381019061011091906114e9565b610548565b604051610122919061193a565b60405180910390f35b61014560048036038101906101409190611495565b61056c565b005b61014f61084f565b005b6101596108d7565b60405161016691906118fd565b60405180910390f35b61018960048036038101906101849190611454565b610900565b6040516101969190611b21565b60405180910390f35b6101b960048036038101906101b49190611454565b610b4e565b6040516101c69190611918565b60405180910390f35b6101e960048036038101906101e49190611454565b610ce9565b005b6101f361100c565b6040516102009190611b43565b60405180910390f35b610223600480360381019061021e9190611402565b611019565b005b600260205280600052604060002060009150905080600001805461024890611cfd565b80601f016020809104026020016040519081016040528092919081815260200182805461027490611cfd565b80156102c15780601f10610296576101008083540402835291602001916102c1565b820191906000526020600020905b8154815290600101906020018083116102a457829003601f168201915b5050505050908060010154905082565b80600160006102df83611111565b9050811561035157600060026000838152602001908152602001600020600001805461030a90611cfd565b90501161034c576040517f08c379a000000000000000000000000000000000000000000000000000000000815260040161034390611a81565b60405180910390fd5b6103b7565b600060026000838152602001908152602001600020600001805461037490611cfd565b9050146103b6576040517f08c379a00000000000000000000000000000000000000000000000000000000081526004016103ad90611a01565b60405180910390fd5b5b60006103c285611111565b9050600060026000838152602001908152602001600020905060011515600360003373ffffffffffffffffffffffffffffffffffffffff1673ffffffffffffffffffffffffffffffffffffffff168152602001908152602001600020600084815260200190815260200160002060009054906101000a900460ff1615151461047f576040517f08c379a000000000000000000000000000000000000000000000000000000000815260040161047690611ae1565b60405180910390fd5b80600101600081548092919061049490611d60565b91905055506000600360003373ffffffffffffffffffffffffffffffffffffffff1673ffffffffffffffffffffffffffffffffffffffff168152602001908152602001600020600084815260200190815260200160002060006101000a81548160ff0219169083151502179055507f97cbec680da2d34e68123dda5e21cb1786866741ea07e3be3ea984e95d37fc9d82826000013360405161053893929190611993565b60405180910390a1505050505050565b6001818154811061055857600080fd5b906000526020600020016000915090505481565b610574611141565b73ffffffffffffffffffffffffffffffffffffffff166105926108d7565b73ffffffffffffffffffffffffffffffffffffffff16146105e8576040517f08c379a00000000000000000000000000000000000000000000000000000000081526004016105df90611ac1565b60405180910390fd5b8181600082511161062e576040517f08c379a000000000000000000000000000000000000000000000000000000000815260040161062590611a21565b60405180910390fd5b60008111610671576040517f08c379a000000000000000000000000000000000000000000000000000000000815260040161066890611a41565b60405180910390fd5b8360008061067e83611111565b905081156106f05760006002600083815260200190815260200160002060000180546106a990611cfd565b9050116106eb576040517f08c379a00000000000000000000000000000000000000000000000000000000081526004016106e290611a81565b60405180910390fd5b610756565b600060026000838152602001908152602001600020600001805461071390611cfd565b905014610755576040517f08c379a000000000000000000000000000000000000000000000000000000000815260040161074c90611a01565b60405180910390fd5b5b6060600061076389611111565b9050600060405180606001604052808b81526020018a81526020018481525090506001829080600181540180825580915050600190039060005260206000200160009091909190915055806002600084815260200190815260200160002060008201518160000190805190602001906107dd92919061120d565b50602082015181600101556040820151816002019080519060200190610804929190611293565b509050507f35a74433f2efe1b7f26383028ef96ad971721b608e1387507768486e938fc166828b8b60405161083b93929190611955565b60405180910390a150505050505050505050565b610857611141565b73ffffffffffffffffffffffffffffffffffffffff166108756108d7565b73ffffffffffffffffffffffffffffffffffffffff16146108cb576040517f08c379a00000000000000000000000000000000000000000000000000000000081526004016108c290611ac1565b60405180910390fd5b6108d56000611149565b565b60008060009054906101000a900473ffffffffffffffffffffffffffffffffffffffff16905090565b61090861131d565b816001600061091683611111565b9050811561098857600060026000838152602001908152602001600020600001805461094190611cfd565b905011610983576040517f08c379a000000000000000000000000000000000000000000000000000000000815260040161097a90611a81565b60405180910390fd5b6109ee565b60006002600083815260200190815260200160002060000180546109ab90611cfd565b9050146109ed576040517f08c379a00000000000000000000000000000000000000000000000000000000081526004016109e490611a01565b60405180910390fd5b5b60006109f986611111565b905060026000828152602001908152602001600020604051806060016040529081600082018054610a2990611cfd565b80601f0160208091040260200160405190810160405280929190818152602001828054610a5590611cfd565b8015610aa25780601f10610a7757610100808354040283529160200191610aa2565b820191906000526020600020905b815481529060010190602001808311610a8557829003601f168201915b505050505081526020016001820154815260200160028201805480602002602001604051908101604052809291908181526020018280548015610b3a57602002820191906000526020600020905b8160009054906101000a900473ffffffffffffffffffffffffffffffffffffffff1673ffffffffffffffffffffffffffffffffffffffff1681526020019060010190808311610af0575b505050505081525050945050505050919050565b60608160016000610b5e83611111565b90508115610bd0576000600260008381526020019081526020016000206000018054610b8990611cfd565b905011610bcb576040517f08c379a0000000000000000000000000000000000000000000000000000000008152600401610bc290611a81565b60405180910390fd5b610c36565b6000600260008381526020019081526020016000206000018054610bf390611cfd565b905014610c35576040517f08c379a0000000000000000000000000000000000000000000000000000000008152600401610c2c90611a01565b60405180910390fd5b5b6000610c4186611111565b905060026000828152602001908152602001600020600201805480602002602001604051908101604052809291908181526020018280548015610cd957602002820191906000526020600020905b8160009054906101000a900473ffffffffffffffffffffffffffffffffffffffff1673ffffffffffffffffffffffffffffffffffffffff1681526020019060010190808311610c8f575b5050505050945050505050919050565b8060016000610cf783611111565b90508115610d69576000600260008381526020019081526020016000206000018054610d2290611cfd565b905011610d64576040517f08c379a0000000000000000000000000000000000000000000000000000000008152600401610d5b90611a81565b60405180910390fd5b610dcf565b6000600260008381526020019081526020016000206000018054610d8c90611cfd565b905014610dce576040517f08c379a0000000000000000000000000000000000000000000000000000000008152600401610dc590611a01565b60405180910390fd5b5b6000610dda85611111565b9050600060026000838152602001908152602001600020905060001515600360003373ffffffffffffffffffffffffffffffffffffffff1673ffffffffffffffffffffffffffffffffffffffff168152602001908152602001600020600084815260200190815260200160002060009054906101000a900460ff16151514610e97576040517f08c379a0000000000000000000000000000000000000000000000000000000008152600401610e8e90611aa1565b60405180910390fd5b6000816001015411610ede576040517f08c379a0000000000000000000000000000000000000000000000000000000008152600401610ed590611b01565b60405180910390fd5b806001016000815480929190610ef390611cd3565b919050555080600201339080600181540180825580915050600190039060005260206000200160009091909190916101000a81548173ffffffffffffffffffffffffffffffffffffffff021916908373ffffffffffffffffffffffffffffffffffffffff1602179055506001600360003373ffffffffffffffffffffffffffffffffffffffff1673ffffffffffffffffffffffffffffffffffffffff168152602001908152602001600020600084815260200190815260200160002060006101000a81548160ff0219169083151502179055507f703d983da514728b105211061790c58d4f28f08d359f7606ec3159ed9919dbd9828260000133604051610ffc93929190611993565b60405180910390a1505050505050565b6000600180549050905090565b611021611141565b73ffffffffffffffffffffffffffffffffffffffff1661103f6108d7565b73ffffffffffffffffffffffffffffffffffffffff1614611095576040517f08c379a000000000000000000000000000000000000000000000000000000000815260040161108c90611ac1565b60405180910390fd5b600073ffffffffffffffffffffffffffffffffffffffff168173ffffffffffffffffffffffffffffffffffffffff161415611105576040517f08c379a00000000000000000000000000000000000000000000000000000000081526004016110fc90611a61565b60405180910390fd5b61110e81611149565b50565b60008160405160200161112491906118e6565b604051602081830303815290604052805190602001209050919050565b600033905090565b60008060009054906101000a900473ffffffffffffffffffffffffffffffffffffffff169050816000806101000a81548173ffffffffffffffffffffffffffffffffffffffff021916908373ffffffffffffffffffffffffffffffffffffffff1602179055508173ffffffffffffffffffffffffffffffffffffffff168173ffffffffffffffffffffffffffffffffffffffff167f8be0079c531659141344cd1fd0a4f28419497f9722a3daafe3b4186f6b6457e060405160405180910390a35050565b82805461121990611cfd565b90600052602060002090601f01602090048101928261123b5760008555611282565b82601f1061125457805160ff1916838001178555611282565b82800160010185558215611282579182015b82811115611281578251825591602001919060010190611266565b5b50905061128f919061133e565b5090565b82805482825590600052602060002090810192821561130c579160200282015b8281111561130b5782518260006101000a81548173ffffffffffffffffffffffffffffffffffffffff021916908373ffffffffffffffffffffffffffffffffffffffff160217905550916020019190600101906112b3565b5b509050611319919061133e565b5090565b60405180606001604052806060815260200160008152602001606081525090565b5b8082111561135757600081600090555060010161133f565b5090565b600061136e61136984611b83565b611b5e565b90508281526020810184848401111561138657600080fd5b611391848285611c91565b509392505050565b6000813590506113a881612004565b92915050565b6000813590506113bd8161201b565b92915050565b600082601f8301126113d457600080fd5b81356113e484826020860161135b565b91505092915050565b6000813590506113fc81612032565b92915050565b60006020828403121561141457600080fd5b600061142284828501611399565b91505092915050565b60006020828403121561143d57600080fd5b600061144b848285016113ae565b91505092915050565b60006020828403121561146657600080fd5b600082013567ffffffffffffffff81111561148057600080fd5b61148c848285016113c3565b91505092915050565b600080604083850312156114a857600080fd5b600083013567ffffffffffffffff8111156114c257600080fd5b6114ce858286016113c3565b92505060206114df858286016113ed565b9150509250929050565b6000602082840312156114fb57600080fd5b6000611509848285016113ed565b91505092915050565b600061151e838361152a565b60208301905092915050565b61153381611c4b565b82525050565b61154281611c4b565b82525050565b600061155382611bd9565b61155d8185611bfc565b935061156883611bb4565b8060005b838110156115995781516115808882611512565b975061158b83611bef565b92505060018101905061156c565b5085935050505092915050565b60006115b182611bd9565b6115bb8185611c0d565b93506115c683611bb4565b8060005b838110156115f75781516115de8882611512565b97506115e983611bef565b9250506001810190506115ca565b5085935050505092915050565b61160d81611c5d565b82525050565b600061161e82611be4565b6116288185611c1e565b9350611638818560208601611ca0565b61164181611e36565b840191505092915050565b600061165782611be4565b6116618185611c2f565b9350611671818560208601611ca0565b61167a81611e36565b840191505092915050565b600061169082611be4565b61169a8185611c40565b93506116aa818560208601611ca0565b80840191505092915050565b600081546116c381611cfd565b6116cd8186611c2f565b945060018216600081146116e857600181146116fa5761172d565b60ff198316865260208601935061172d565b61170385611bc4565b60005b8381101561172557815481890152600182019150602081019050611706565b808801955050505b50505092915050565b6000611743601483611c2f565b915061174e82611e47565b602082019050919050565b6000611766601a83611c2f565b915061177182611e70565b602082019050919050565b6000611789602083611c2f565b915061179482611e99565b602082019050919050565b60006117ac602683611c2f565b91506117b782611ec2565b604082019050919050565b60006117cf601483611c2f565b91506117da82611f11565b602082019050919050565b60006117f2602383611c2f565b91506117fd82611f3a565b604082019050919050565b6000611815602083611c2f565b915061182082611f89565b602082019050919050565b6000611838602083611c2f565b915061184382611fb2565b602082019050919050565b600061185b602083611c2f565b915061186682611fdb565b602082019050919050565b6000606083016000830151848203600086015261188e8282611613565b91505060208301516118a360208601826118c8565b50604083015184820360408601526118bb8282611548565b9150508091505092915050565b6118d181611c87565b82525050565b6118e081611c87565b82525050565b60006118f28284611685565b915081905092915050565b60006020820190506119126000830184611539565b92915050565b6000602082019050818103600083015261193281846115a6565b905092915050565b600060208201905061194f6000830184611604565b92915050565b600060608201905061196a6000830186611604565b818103602083015261197c818561164c565b905061198b60408301846118d7565b949350505050565b60006060820190506119a86000830186611604565b81810360208301526119ba81856116b6565b90506119c96040830184611539565b949350505050565b600060408201905081810360008301526119eb818561164c565b90506119fa60208301846118d7565b9392505050565b60006020820190508181036000830152611a1a81611736565b9050919050565b60006020820190508181036000830152611a3a81611759565b9050919050565b60006020820190508181036000830152611a5a8161177c565b9050919050565b60006020820190508181036000830152611a7a8161179f565b9050919050565b60006020820190508181036000830152611a9a816117c2565b9050919050565b60006020820190508181036000830152611aba816117e5565b9050919050565b60006020820190508181036000830152611ada81611808565b9050919050565b60006020820190508181036000830152611afa8161182b565b9050919050565b60006020820190508181036000830152611b1a8161184e565b9050919050565b60006020820190508181036000830152611b3b8184611871565b905092915050565b6000602082019050611b5860008301846118d7565b92915050565b6000611b68611b79565b9050611b748282611d2f565b919050565b6000604051905090565b600067ffffffffffffffff821115611b9e57611b9d611e07565b5b611ba782611e36565b9050602081019050919050565b6000819050602082019050919050565b60008190508160005260206000209050919050565b600081519050919050565b600081519050919050565b6000602082019050919050565b600082825260208201905092915050565b600082825260208201905092915050565b600082825260208201905092915050565b600082825260208201905092915050565b600081905092915050565b6000611c5682611c67565b9050919050565b6000819050919050565b600073ffffffffffffffffffffffffffffffffffffffff82169050919050565b6000819050919050565b82818337600083830152505050565b60005b83811015611cbe578082015181840152602081019050611ca3565b83811115611ccd576000848401525b50505050565b6000611cde82611c87565b91506000821415611cf257611cf1611da9565b5b600182039050919050565b60006002820490506001821680611d1557607f821691505b60208210811415611d2957611d28611dd8565b5b50919050565b611d3882611e36565b810181811067ffffffffffffffff82111715611d5757611d56611e07565b5b80604052505050565b6000611d6b82611c87565b91507fffffffffffffffffffffffffffffffffffffffffffffffffffffffffffffffff821415611d9e57611d9d611da9565b5b600182019050919050565b7f4e487b7100000000000000000000000000000000000000000000000000000000600052601160045260246000fd5b7f4e487b7100000000000000000000000000000000000000000000000000000000600052602260045260246000fd5b7f4e487b7100000000000000000000000000000000000000000000000000000000600052604160045260246000fd5b6000601f19601f8301169050919050565b7f426f6f6b20616c7265616479206578697374732e000000000000000000000000600082015250565b7f5469746c652073686f756c64206e6f7420626520656d7074792e000000000000600082015250565b7f436f706965732073686f756c642062652067726561746572207468616e20302e600082015250565b7f4f776e61626c653a206e6577206f776e657220697320746865207a65726f206160008201527f6464726573730000000000000000000000000000000000000000000000000000602082015250565b7f426f6f6b20646f6573206e6f742065786973742e000000000000000000000000600082015250565b7f557365722068617320616c726561647920626f72726f7765642074686520626f60008201527f6f6b2e0000000000000000000000000000000000000000000000000000000000602082015250565b7f4f776e61626c653a2063616c6c6572206973206e6f7420746865206f776e6572600082015250565b7f5573657220686173206e6f7420626f72726f776564207468697320626f6f6b2e600082015250565b7f4e6f20617661696c61626c6520636f70696573206f662074686520626f6f6b2e600082015250565b61200d81611c4b565b811461201857600080fd5b50565b61202481611c5d565b811461202f57600080fd5b50565b61203b81611c87565b811461204657600080fd5b5056fea2646970667358221220796a3b2fe4b03f2e98a7c06c57a1031e009f529bb810c1ef0a66dacdbc0c292764736f6c63430008040033",
  "linkReferences": {},
  "deployedLinkReferences": {}
}