{
  "_format": "hh-sol-artifact-1",
  "contractName": "BookLibrary",
  "sourceName": "contracts/BookLibrary.sol",
  "abi": [
    {
      "anonymous": false,
      "inputs": [
        {
          "indexed": false,
          "internalType": "bytes32",
          "name": "id",
          "type": "bytes32"
        },
        {
          "indexed": false,
          "internalType": "string",
          "name": "title",
          "type": "string"
        },
        {
          "indexed": false,
          "internalType": "uint256",
          "name": "numberOfCopies",
          "type": "uint256"
        }
      ],
      "name": "BookAdded",
      "type": "event"
    },
    {
      "anonymous": false,
      "inputs": [
        {
          "indexed": false,
          "internalType": "bytes32",
          "name": "id",
          "type": "bytes32"
        },
        {
          "indexed": false,
          "internalType": "address",
          "name": "user",
          "type": "address"
        }
      ],
      "name": "BookBorrowed",
      "type": "event"
    },
    {
      "anonymous": false,
      "inputs": [
        {
          "indexed": false,
          "internalType": "bytes32",
          "name": "id",
          "type": "bytes32"
        },
        {
          "indexed": false,
          "internalType": "address",
          "name": "user",
          "type": "address"
        }
      ],
      "name": "BookReturned",
      "type": "event"
    },
    {
      "anonymous": false,
      "inputs": [
        {
          "indexed": true,
          "internalType": "address",
          "name": "previousOwner",
          "type": "address"
        },
        {
          "indexed": true,
          "internalType": "address",
          "name": "newOwner",
          "type": "address"
        }
      ],
      "name": "OwnershipTransferred",
      "type": "event"
    },
    {
      "inputs": [
        {
          "internalType": "string",
          "name": "_title",
          "type": "string"
        },
        {
          "internalType": "uint256",
          "name": "_numberOfCopies",
          "type": "uint256"
        }
      ],
      "name": "addBook",
      "outputs": [],
      "stateMutability": "nonpayable",
      "type": "function"
    },
    {
      "inputs": [
        {
          "internalType": "bytes32",
          "name": "_bookId",
          "type": "bytes32"
        }
      ],
      "name": "borrowBook",
      "outputs": [],
      "stateMutability": "nonpayable",
      "type": "function"
    },
    {
      "inputs": [],
      "name": "getAvailableBooks",
      "outputs": [
        {
          "components": [
            {
              "internalType": "bytes32",
              "name": "id",
              "type": "bytes32"
            },
            {
              "internalType": "string",
              "name": "title",
              "type": "string"
            },
            {
              "internalType": "uint256",
              "name": "numberOfCopies",
              "type": "uint256"
            },
            {
              "internalType": "address[]",
              "name": "borrowedUsersHistory",
              "type": "address[]"
            }
          ],
          "internalType": "struct BookLibrary.Book[]",
          "name": "",
          "type": "tuple[]"
        }
      ],
      "stateMutability": "view",
      "type": "function"
    },
    {
      "inputs": [
        {
          "internalType": "bytes32",
          "name": "_bookId",
          "type": "bytes32"
        }
      ],
      "name": "getBookBorrowers",
      "outputs": [
        {
          "internalType": "address[]",
          "name": "",
          "type": "address[]"
        }
      ],
      "stateMutability": "view",
      "type": "function"
    },
    {
      "inputs": [],
      "name": "owner",
      "outputs": [
        {
          "internalType": "address",
          "name": "",
          "type": "address"
        }
      ],
      "stateMutability": "view",
      "type": "function"
    },
    {
      "inputs": [],
      "name": "renounceOwnership",
      "outputs": [],
      "stateMutability": "nonpayable",
      "type": "function"
    },
    {
      "inputs": [
        {
          "internalType": "bytes32",
          "name": "_bookId",
          "type": "bytes32"
        }
      ],
      "name": "returnBook",
      "outputs": [],
      "stateMutability": "nonpayable",
      "type": "function"
    },
    {
      "inputs": [
        {
          "internalType": "address",
          "name": "newOwner",
          "type": "address"
        }
      ],
      "name": "transferOwnership",
      "outputs": [],
      "stateMutability": "nonpayable",
      "type": "function"
    }
  ],
  "bytecode": "0x608060405234801561001057600080fd5b5061002d61002261003260201b60201c565b61003a60201b60201c565b6100fe565b600033905090565b60008060009054906101000a900473ffffffffffffffffffffffffffffffffffffffff169050816000806101000a81548173ffffffffffffffffffffffffffffffffffffffff021916908373ffffffffffffffffffffffffffffffffffffffff1602179055508173ffffffffffffffffffffffffffffffffffffffff168173ffffffffffffffffffffffffffffffffffffffff167f8be0079c531659141344cd1fd0a4f28419497f9722a3daafe3b4186f6b6457e060405160405180910390a35050565b611e498061010d6000396000f3fe608060405234801561001057600080fd5b50600436106100885760003560e01c80638da5cb5b1161005b5780638da5cb5b146100ff578063d25a43481461011d578063d6c084d914610139578063f2fde38b1461015757610088565b806312775c161461008d5780634054039c146100a9578063637a3872146100d9578063715018a6146100f5575b600080fd5b6100a760048036038101906100a2919061128b565b610173565b005b6100c360048036038101906100be919061128b565b6102e8565b6040516100d09190611739565b60405180910390f35b6100f360048036038101906100ee91906112b4565b6103d4565b005b6100fd610636565b005b6101076106be565b604051610114919061171e565b60405180910390f35b6101376004803603810190610132919061128b565b6106e7565b005b610141610920565b60405161014e919061175b565b60405180910390f35b610171600480360381019061016c9190611262565b610d06565b005b60011515600460003373ffffffffffffffffffffffffffffffffffffffff1673ffffffffffffffffffffffffffffffffffffffff168152602001908152602001600020600083815260200190815260200160002060009054906101000a900460ff16151514610217576040517f08c379a000000000000000000000000000000000000000000000000000000000815260040161020e906118c4565b60405180910390fd5b60026000828152602001908152602001600020600201600081548092919061023e90611b2a565b91905055506000600460003373ffffffffffffffffffffffffffffffffffffffff1673ffffffffffffffffffffffffffffffffffffffff168152602001908152602001600020600083815260200190815260200160002060006101000a81548160ff0219169083151502179055507ff7e3cfd2f29d471df201a83cf2eb6b46ce10fa11fa384624d09a028fe39c785181336040516102dd92919061177d565b60405180910390a150565b60606102f382610dfe565b610332576040517f08c379a000000000000000000000000000000000000000000000000000000000815260040161032990611844565b60405180910390fd5b600260008381526020019081526020016000206003018054806020026020016040519081016040528092919081815260200182805480156103c857602002820191906000526020600020905b8160009054906101000a900473ffffffffffffffffffffffffffffffffffffffff1673ffffffffffffffffffffffffffffffffffffffff168152602001906001019080831161037e575b50505050509050919050565b6103dc610f67565b73ffffffffffffffffffffffffffffffffffffffff166103fa6106be565b73ffffffffffffffffffffffffffffffffffffffff1614610450576040517f08c379a0000000000000000000000000000000000000000000000000000000008152600401610447906118a4565b60405180910390fd5b81816000825111610496576040517f08c379a000000000000000000000000000000000000000000000000000000000815260040161048d906117e4565b60405180910390fd5b600015156104ab6104a684610f6f565b610dfe565b1515146104ed576040517f08c379a00000000000000000000000000000000000000000000000000000000081526004016104e490611884565b60405180910390fd5b60008111610530576040517f08c379a000000000000000000000000000000000000000000000000000000000815260040161052790611804565b60405180910390fd5b6060600061053d86610f6f565b905060006040518060800160405280838152602001888152602001878152602001848152509050600182908060018154018082558091505060019003906000526020600020016000909190919091505580600260008481526020019081526020016000206000820151816000015560208201518160010190805190602001906105c7929190611063565b506040820151816002015560608201518160030190805190602001906105ee9291906110e9565b509050507f35a74433f2efe1b7f26383028ef96ad971721b608e1387507768486e938fc166828888604051610625939291906117a6565b60405180910390a150505050505050565b61063e610f67565b73ffffffffffffffffffffffffffffffffffffffff1661065c6106be565b73ffffffffffffffffffffffffffffffffffffffff16146106b2576040517f08c379a00000000000000000000000000000000000000000000000000000000081526004016106a9906118a4565b60405180910390fd5b6106bc6000610f9f565b565b60008060009054906101000a900473ffffffffffffffffffffffffffffffffffffffff16905090565b60001515600460003373ffffffffffffffffffffffffffffffffffffffff1673ffffffffffffffffffffffffffffffffffffffff168152602001908152602001600020600083815260200190815260200160002060009054906101000a900460ff1615151461078b576040517f08c379a000000000000000000000000000000000000000000000000000000000815260040161078290611864565b60405180910390fd5b60006002600083815260200190815260200160002060020154116107e4576040517f08c379a00000000000000000000000000000000000000000000000000000000081526004016107db906118e4565b60405180910390fd5b600060026000838152602001908152602001600020905080600201600081548092919061081090611a9d565b919050555080600301339080600181540180825580915050600190039060005260206000200160009091909190916101000a81548173ffffffffffffffffffffffffffffffffffffffff021916908373ffffffffffffffffffffffffffffffffffffffff1602179055506001600460003373ffffffffffffffffffffffffffffffffffffffff1673ffffffffffffffffffffffffffffffffffffffff168152602001908152602001600020600084815260200190815260200160002060006101000a81548160ff0219169083151502179055507f62aac2ddc5e94c48264d98066a7a1a34bef693b45b0e1077126bec45ee774354823360405161091492919061177d565b60405180910390a15050565b60606000805b6001805490508110156109be5760006001828154811061096f577f4e487b7100000000000000000000000000000000000000000000000000000000600052603260045260246000fd5b906000526020600020015490506000600260008381526020019081526020016000206002015411156109aa5782806109a690611b2a565b9350505b5080806109b690611b2a565b915050610926565b506000811415610a4b57600067ffffffffffffffff811115610a09577f4e487b7100000000000000000000000000000000000000000000000000000000600052604160045260246000fd5b604051908082528060200260200182016040528015610a4257816020015b610a2f611173565b815260200190600190039081610a275790505b50915050610d03565b60008167ffffffffffffffff811115610a8d577f4e487b7100000000000000000000000000000000000000000000000000000000600052604160045260246000fd5b604051908082528060200260200182016040528015610ac657816020015b610ab3611173565b815260200190600190039081610aab5790505b5090506000805b600180549050811015610cfb57600060018281548110610b16577f4e487b7100000000000000000000000000000000000000000000000000000000600052603260045260246000fd5b90600052602060002001549050600060026000838152602001908152602001600020600201541115610ce7576002600082815260200190815260200160002060405180608001604052908160008201548152602001600182018054610b7a90611ac7565b80601f0160208091040260200160405190810160405280929190818152602001828054610ba690611ac7565b8015610bf35780601f10610bc857610100808354040283529160200191610bf3565b820191906000526020600020905b815481529060010190602001808311610bd657829003601f168201915b505050505081526020016002820154815260200160038201805480602002602001604051908101604052809291908181526020018280548015610c8b57602002820191906000526020600020905b8160009054906101000a900473ffffffffffffffffffffffffffffffffffffffff1673ffffffffffffffffffffffffffffffffffffffff1681526020019060010190808311610c41575b505050505081525050848481518110610ccd577f4e487b7100000000000000000000000000000000000000000000000000000000600052603260045260246000fd5b60200260200101819052508280610ce390611b2a565b9350505b508080610cf390611b2a565b915050610acd565b508193505050505b90565b610d0e610f67565b73ffffffffffffffffffffffffffffffffffffffff16610d2c6106be565b73ffffffffffffffffffffffffffffffffffffffff1614610d82576040517f08c379a0000000000000000000000000000000000000000000000000000000008152600401610d79906118a4565b60405180910390fd5b600073ffffffffffffffffffffffffffffffffffffffff168173ffffffffffffffffffffffffffffffffffffffff161415610df2576040517f08c379a0000000000000000000000000000000000000000000000000000000008152600401610de990611824565b60405180910390fd5b610dfb81610f9f565b50565b6000806002600084815260200190815260200160002060405180608001604052908160008201548152602001600182018054610e3990611ac7565b80601f0160208091040260200160405190810160405280929190818152602001828054610e6590611ac7565b8015610eb25780601f10610e8757610100808354040283529160200191610eb2565b820191906000526020600020905b815481529060010190602001808311610e9557829003601f168201915b505050505081526020016002820154815260200160038201805480602002602001604051908101604052809291908181526020018280548015610f4a57602002820191906000526020600020905b8160009054906101000a900473ffffffffffffffffffffffffffffffffffffffff1673ffffffffffffffffffffffffffffffffffffffff1681526020019060010190808311610f00575b505050505081525050905060008160200151511415915050919050565b600033905090565b600081604051602001610f829190611707565b604051602081830303815290604052805190602001209050919050565b60008060009054906101000a900473ffffffffffffffffffffffffffffffffffffffff169050816000806101000a81548173ffffffffffffffffffffffffffffffffffffffff021916908373ffffffffffffffffffffffffffffffffffffffff1602179055508173ffffffffffffffffffffffffffffffffffffffff168173ffffffffffffffffffffffffffffffffffffffff167f8be0079c531659141344cd1fd0a4f28419497f9722a3daafe3b4186f6b6457e060405160405180910390a35050565b82805461106f90611ac7565b90600052602060002090601f01602090048101928261109157600085556110d8565b82601f106110aa57805160ff19168380011785556110d8565b828001600101855582156110d8579182015b828111156110d75782518255916020019190600101906110bc565b5b5090506110e5919061119e565b5090565b828054828255906000526020600020908101928215611162579160200282015b828111156111615782518260006101000a81548173ffffffffffffffffffffffffffffffffffffffff021916908373ffffffffffffffffffffffffffffffffffffffff16021790555091602001919060010190611109565b5b50905061116f919061119e565b5090565b6040518060800160405280600080191681526020016060815260200160008152602001606081525090565b5b808211156111b757600081600090555060010161119f565b5090565b60006111ce6111c984611929565b611904565b9050828152602081018484840111156111e657600080fd5b6111f1848285611a5b565b509392505050565b60008135905061120881611dce565b92915050565b60008135905061121d81611de5565b92915050565b600082601f83011261123457600080fd5b81356112448482602086016111bb565b91505092915050565b60008135905061125c81611dfc565b92915050565b60006020828403121561127457600080fd5b6000611282848285016111f9565b91505092915050565b60006020828403121561129d57600080fd5b60006112ab8482850161120e565b91505092915050565b600080604083850312156112c757600080fd5b600083013567ffffffffffffffff8111156112e157600080fd5b6112ed85828601611223565b92505060206112fe8582860161124d565b9150509250929050565b60006113148383611334565b60208301905092915050565b600061132c838361167f565b905092915050565b61133d81611a15565b82525050565b61134c81611a15565b82525050565b600061135d8261197a565b61136781856119b5565b93506113728361195a565b8060005b838110156113a357815161138a8882611308565b97506113958361199b565b925050600181019050611376565b5085935050505092915050565b60006113bb8261197a565b6113c581856119c6565b93506113d08361195a565b8060005b838110156114015781516113e88882611308565b97506113f38361199b565b9250506001810190506113d4565b5085935050505092915050565b600061141982611985565b61142381856119d7565b9350836020820285016114358561196a565b8060005b8581101561147157848403895281516114528582611320565b945061145d836119a8565b925060208a01995050600181019050611439565b50829750879550505050505092915050565b61148c81611a27565b82525050565b61149b81611a27565b82525050565b60006114ac82611990565b6114b681856119e8565b93506114c6818560208601611a6a565b6114cf81611c00565b840191505092915050565b60006114e582611990565b6114ef81856119f9565b93506114ff818560208601611a6a565b61150881611c00565b840191505092915050565b600061151e82611990565b6115288185611a0a565b9350611538818560208601611a6a565b80840191505092915050565b6000611551601a836119f9565b915061155c82611c11565b602082019050919050565b60006115746020836119f9565b915061157f82611c3a565b602082019050919050565b60006115976026836119f9565b91506115a282611c63565b604082019050919050565b60006115ba6014836119f9565b91506115c582611cb2565b602082019050919050565b60006115dd6023836119f9565b91506115e882611cdb565b604082019050919050565b60006116006013836119f9565b915061160b82611d2a565b602082019050919050565b60006116236020836119f9565b915061162e82611d53565b602082019050919050565b60006116466020836119f9565b915061165182611d7c565b602082019050919050565b60006116696020836119f9565b915061167482611da5565b602082019050919050565b60006080830160008301516116976000860182611483565b50602083015184820360208601526116af82826114a1565b91505060408301516116c460408601826116e9565b50606083015184820360608601526116dc8282611352565b9150508091505092915050565b6116f281611a51565b82525050565b61170181611a51565b82525050565b60006117138284611513565b915081905092915050565b60006020820190506117336000830184611343565b92915050565b6000602082019050818103600083015261175381846113b0565b905092915050565b60006020820190508181036000830152611775818461140e565b905092915050565b60006040820190506117926000830185611492565b61179f6020830184611343565b9392505050565b60006060820190506117bb6000830186611492565b81810360208301526117cd81856114da565b90506117dc60408301846116f8565b949350505050565b600060208201905081810360008301526117fd81611544565b9050919050565b6000602082019050818103600083015261181d81611567565b9050919050565b6000602082019050818103600083015261183d8161158a565b9050919050565b6000602082019050818103600083015261185d816115ad565b9050919050565b6000602082019050818103600083015261187d816115d0565b9050919050565b6000602082019050818103600083015261189d816115f3565b9050919050565b600060208201905081810360008301526118bd81611616565b9050919050565b600060208201905081810360008301526118dd81611639565b9050919050565b600060208201905081810360008301526118fd8161165c565b9050919050565b600061190e61191f565b905061191a8282611af9565b919050565b6000604051905090565b600067ffffffffffffffff82111561194457611943611bd1565b5b61194d82611c00565b9050602081019050919050565b6000819050602082019050919050565b6000819050602082019050919050565b600081519050919050565b600081519050919050565b600081519050919050565b6000602082019050919050565b6000602082019050919050565b600082825260208201905092915050565b600082825260208201905092915050565b600082825260208201905092915050565b600082825260208201905092915050565b600082825260208201905092915050565b600081905092915050565b6000611a2082611a31565b9050919050565b6000819050919050565b600073ffffffffffffffffffffffffffffffffffffffff82169050919050565b6000819050919050565b82818337600083830152505050565b60005b83811015611a88578082015181840152602081019050611a6d565b83811115611a97576000848401525b50505050565b6000611aa882611a51565b91506000821415611abc57611abb611b73565b5b600182039050919050565b60006002820490506001821680611adf57607f821691505b60208210811415611af357611af2611ba2565b5b50919050565b611b0282611c00565b810181811067ffffffffffffffff82111715611b2157611b20611bd1565b5b80604052505050565b6000611b3582611a51565b91507fffffffffffffffffffffffffffffffffffffffffffffffffffffffffffffffff821415611b6857611b67611b73565b5b600182019050919050565b7f4e487b7100000000000000000000000000000000000000000000000000000000600052601160045260246000fd5b7f4e487b7100000000000000000000000000000000000000000000000000000000600052602260045260246000fd5b7f4e487b7100000000000000000000000000000000000000000000000000000000600052604160045260246000fd5b6000601f19601f8301169050919050565b7f5469746c652073686f756c64206e6f7420626520656d7074792e000000000000600082015250565b7f436f706965732073686f756c642062652067726561746572207468616e20302e600082015250565b7f4f776e61626c653a206e6577206f776e657220697320746865207a65726f206160008201527f6464726573730000000000000000000000000000000000000000000000000000602082015250565b7f426f6f6b20646f6573206e6f742065786973742e000000000000000000000000600082015250565b7f557365722068617320616c726561647920626f72726f7765642074686520626f60008201527f6f6b2e0000000000000000000000000000000000000000000000000000000000602082015250565b7f426f6f6b20616c72656164792061646465642e00000000000000000000000000600082015250565b7f4f776e61626c653a2063616c6c6572206973206e6f7420746865206f776e6572600082015250565b7f5573657220686173206e6f7420626f72726f776564207468697320626f6f6b2e600082015250565b7f4e6f20617661696c61626c6520636f70696573206f662074686520626f6f6b2e600082015250565b611dd781611a15565b8114611de257600080fd5b50565b611dee81611a27565b8114611df957600080fd5b50565b611e0581611a51565b8114611e1057600080fd5b5056fea264697066735822122045b90e3a3d7b9c0ab5890b7a6af5e17a90386681dff6b77a22c01d523a67954264736f6c63430008040033",
  "linkReferences": {},
  "deployedLinkReferences": {}
}